{
  "contractName": "Casino",
  "abi": [
    {
      "constant": true,
      "inputs": [],
      "name": "LIMIT_AMOUNT_BETS",
      "outputs": [
        {
          "name": "",
          "type": "uint256"
        }
      ],
      "payable": false,
      "stateMutability": "view",
      "type": "function"
    },
    {
      "constant": true,
      "inputs": [],
      "name": "numberOfBets",
      "outputs": [
        {
          "name": "",
          "type": "uint256"
        }
      ],
      "payable": false,
      "stateMutability": "view",
      "type": "function"
    },
    {
      "constant": false,
      "inputs": [
        {
          "name": "amount",
          "type": "uint256"
        }
      ],
      "name": "withdraw",
      "outputs": [],
      "payable": false,
      "stateMutability": "nonpayable",
      "type": "function"
    },
    {
      "constant": true,
      "inputs": [
        {
          "name": "",
          "type": "address"
        }
      ],
      "name": "playerBetsNumber",
      "outputs": [
        {
          "name": "",
          "type": "uint256"
        }
      ],
      "payable": false,
      "stateMutability": "view",
      "type": "function"
    },
    {
      "constant": false,
      "inputs": [
        {
          "name": "_queryId",
          "type": "bytes32"
        },
        {
          "name": "_result",
          "type": "string"
        },
        {
          "name": "_proof",
          "type": "bytes"
        }
      ],
      "name": "__callback",
      "outputs": [],
      "payable": false,
      "stateMutability": "nonpayable",
      "type": "function"
    },
    {
      "constant": true,
      "inputs": [
        {
          "name": "player",
          "type": "address"
        }
      ],
      "name": "checkPlayerExists",
      "outputs": [
        {
          "name": "",
          "type": "bool"
        }
      ],
      "payable": false,
      "stateMutability": "view",
      "type": "function"
    },
    {
      "constant": false,
      "inputs": [
        {
          "name": "numberToBet",
          "type": "uint256"
        }
      ],
      "name": "bet",
      "outputs": [],
      "payable": true,
      "stateMutability": "payable",
      "type": "function"
    },
    {
      "constant": true,
      "inputs": [],
      "name": "owner",
      "outputs": [
        {
          "name": "",
          "type": "address"
        }
      ],
      "payable": false,
      "stateMutability": "view",
      "type": "function"
    },
    {
      "constant": true,
      "inputs": [],
      "name": "numberWinner",
      "outputs": [
        {
          "name": "",
          "type": "uint256"
        }
      ],
      "payable": false,
      "stateMutability": "view",
      "type": "function"
    },
    {
      "constant": true,
      "inputs": [],
      "name": "minimumBet",
      "outputs": [
        {
          "name": "",
          "type": "uint256"
        }
      ],
      "payable": false,
      "stateMutability": "view",
      "type": "function"
    },
    {
      "constant": true,
      "inputs": [
        {
          "name": "",
          "type": "uint256"
        },
        {
          "name": "",
          "type": "uint256"
        }
      ],
      "name": "numberBetPlayers",
      "outputs": [
        {
          "name": "",
          "type": "address"
        }
      ],
      "payable": false,
      "stateMutability": "view",
      "type": "function"
    },
    {
      "constant": true,
      "inputs": [],
      "name": "maxAmountOfBets",
      "outputs": [
        {
          "name": "",
          "type": "uint256"
        }
      ],
      "payable": false,
      "stateMutability": "view",
      "type": "function"
    },
    {
      "constant": true,
      "inputs": [
        {
          "name": "",
          "type": "address"
        }
      ],
      "name": "winnings",
      "outputs": [
        {
          "name": "",
          "type": "uint256"
        }
      ],
      "payable": false,
      "stateMutability": "view",
      "type": "function"
    },
    {
      "constant": true,
      "inputs": [
        {
          "name": "",
          "type": "uint256"
        }
      ],
      "name": "players",
      "outputs": [
        {
          "name": "",
          "type": "address"
        }
      ],
      "payable": false,
      "stateMutability": "view",
      "type": "function"
    },
    {
      "constant": true,
      "inputs": [],
      "name": "totalBet",
      "outputs": [
        {
          "name": "",
          "type": "uint256"
        }
      ],
      "payable": false,
      "stateMutability": "view",
      "type": "function"
    },
    {
      "inputs": [
        {
          "name": "_minimumBet",
          "type": "uint256"
        },
        {
          "name": "_maxAmountOfBets",
          "type": "uint256"
        }
      ],
      "payable": false,
      "stateMutability": "nonpayable",
      "type": "constructor"
    },
    {
      "anonymous": false,
      "inputs": [
        {
          "indexed": false,
          "name": "sender",
          "type": "address"
        },
        {
          "indexed": false,
          "name": "amount",
          "type": "uint256"
        },
        {
          "indexed": false,
          "name": "number",
          "type": "uint256"
        }
      ],
      "name": "LogBet",
      "type": "event"
    },
    {
      "anonymous": false,
      "inputs": [
        {
          "indexed": false,
          "name": "winnerNumber",
          "type": "uint256"
        },
        {
          "indexed": false,
          "name": "totalPot",
          "type": "uint256"
        }
      ],
      "name": "LogWinner",
      "type": "event"
    },
    {
      "anonymous": false,
      "inputs": [
        {
          "indexed": false,
          "name": "receiver",
          "type": "address"
        },
        {
          "indexed": false,
          "name": "amount",
          "type": "uint256"
        }
      ],
      "name": "LogWithdrawal",
      "type": "event"
    }
  ],
  "bytecode": "0x606060405267016345785d8a0000600155600a600455341561002057600080fd5b6040516040806110be83398101604052808051906020019091908051906020019091905050336000806101000a81548173ffffffffffffffffffffffffffffffffffffffff021916908373ffffffffffffffffffffffffffffffffffffffff160217905550600082111561009657816001819055505b6000811180156100a7575060648111155b156100b457806004819055505b6100f360307f0100000000000000000000000000000000000000000000000000000000000000026100fa64010000000002610f83176401000000009004565b50506100fd565b50565b610fb28061010c6000396000f3006060604052600436106100db576000357c0100000000000000000000000000000000000000000000000000000000900463ffffffff1680631900874b146100e05780632ca8c6d3146101095780632e1a7d4d1461013257806332eacbde1461015557806338bbfa50146101a25780634081d9161461024f5780637365870b146102a05780638da5cb5b146102b85780639a6a68e91461030d578063c38a8afd14610336578063cc5371bf1461035f578063e08a96cd146103cb578063ea3a1499146103f4578063f71d96cb14610441578063fe5e1853146104a4575b600080fd5b34156100eb57600080fd5b6100f36104cd565b6040518082815260200191505060405180910390f35b341561011457600080fd5b61011c6104d2565b6040518082815260200191505060405180910390f35b341561013d57600080fd5b61015360048080359060200190919050506104d8565b005b341561016057600080fd5b61018c600480803573ffffffffffffffffffffffffffffffffffffffff16906020019091905050610669565b6040518082815260200191505060405180910390f35b34156101ad57600080fd5b61024d60048080356000191690602001909190803590602001908201803590602001908080601f0160208091040260200160405190810160405280939291908181526020018383808284378201915050505050509190803590602001908201803590602001908080601f01602080910402602001604051908101604052809392919081815260200183838082843782019150505050505091905050610681565b005b341561025a57600080fd5b610286600480803573ffffffffffffffffffffffffffffffffffffffff1690602001909190505061075c565b604051808215151515815260200191505060405180910390f35b6102b660048080359060200190919050506107b8565b005b34156102c357600080fd5b6102cb610982565b604051808273ffffffffffffffffffffffffffffffffffffffff1673ffffffffffffffffffffffffffffffffffffffff16815260200191505060405180910390f35b341561031857600080fd5b6103206109a7565b6040518082815260200191505060405180910390f35b341561034157600080fd5b6103496109ad565b6040518082815260200191505060405180910390f35b341561036a57600080fd5b61038960048080359060200190919080359060200190919050506109b3565b604051808273ffffffffffffffffffffffffffffffffffffffff1673ffffffffffffffffffffffffffffffffffffffff16815260200191505060405180910390f35b34156103d657600080fd5b6103de610a01565b6040518082815260200191505060405180910390f35b34156103ff57600080fd5b61042b600480803573ffffffffffffffffffffffffffffffffffffffff16906020019091905050610a07565b6040518082815260200191505060405180910390f35b341561044c57600080fd5b6104626004808035906020019091905050610a1f565b604051808273ffffffffffffffffffffffffffffffffffffffff1673ffffffffffffffffffffffffffffffffffffffff16815260200191505060405180910390f35b34156104af57600080fd5b6104b7610a5e565b6040518082815260200191505060405180910390f35b606481565b60035481565b80600960003373ffffffffffffffffffffffffffffffffffffffff1673ffffffffffffffffffffffffffffffffffffffff168152602001908152602001600020541015151561052657600080fd5b61057881600960003373ffffffffffffffffffffffffffffffffffffffff1673ffffffffffffffffffffffffffffffffffffffff16815260200190815260200160002054610a6490919063ffffffff16565b600960003373ffffffffffffffffffffffffffffffffffffffff1673ffffffffffffffffffffffffffffffffffffffff168152602001908152602001600020819055503373ffffffffffffffffffffffffffffffffffffffff166108fc829081150290604051600060405180830381858888f1935050505015156105fb57600080fd5b7fb4214c8c54fc7442f36d3682f59aebaf09358a4431835b30efb29d52cf9e1e913382604051808373ffffffffffffffffffffffffffffffffffffffff1673ffffffffffffffffffffffffffffffffffffffff1681526020018281526020019250505060405180910390a150565b60086020528060005260406000206000915090505481565b82828260045460035410151561075457610699610a7d565b73ffffffffffffffffffffffffffffffffffffffff163373ffffffffffffffffffffffffffffffffffffffff161415156106cf57fe5b6001600a866040518082805190602001908083835b60208310151561070957805182526020820191506020810190506020830392506106e4565b6001836020036101000a03801982511681845116808217855250505050505090500191505060405180910390206001900481151561074357fe5b0601600581905550610753610a85565b5b505050505050565b600080600860008473ffffffffffffffffffffffffffffffffffffffff1673ffffffffffffffffffffffffffffffffffffffff1681526020019081526020016000205411156107ae57600190506107b3565b600090505b919050565b6004546003541015156107c757fe5b600015156107d43361075c565b15151415156107df57fe5b600181101580156107f15750600a8111155b15156107f957fe5b600154341015151561080757fe5b80600860003373ffffffffffffffffffffffffffffffffffffffff1673ffffffffffffffffffffffffffffffffffffffff168152602001908152602001600020819055506007600082815260200190815260200160002080548060010182816108709190610f06565b9160005260206000209001600033909190916101000a81548173ffffffffffffffffffffffffffffffffffffffff021916908373ffffffffffffffffffffffffffffffffffffffff160217905550506108d56001600354610e8990919063ffffffff16565b6003819055506108f034600254610e8990919063ffffffff16565b6002819055507fcfb6e9afebabebfb2c7ac42dfcd2e8ca178dc6400fe8ec3075bd690d8e3377fe333483604051808473ffffffffffffffffffffffffffffffffffffffff1673ffffffffffffffffffffffffffffffffffffffff168152602001838152602001828152602001935050505060405180910390a160045460035410151561097f5761097e610ea7565b5b50565b6000809054906101000a900473ffffffffffffffffffffffffffffffffffffffff1681565b60055481565b60015481565b6007602052816000526040600020818154811015156109ce57fe5b90600052602060002090016000915091509054906101000a900473ffffffffffffffffffffffffffffffffffffffff1681565b60045481565b60096020528060005260406000206000915090505481565b600681815481101515610a2e57fe5b90600052602060002090016000915054906101000a900473ffffffffffffffffffffffffffffffffffffffff1681565b60025481565b6000828211151515610a7257fe5b818303905092915050565b600033905090565b60008060008060006007600060055481526020019081526020016000208054905094506000851115610c5957610ac685600254610edc90919063ffffffff16565b93507f064000a83e6d43dc6cacd544144da2de96683b44fa261425358bc354564dbccb600554600254604051808381526020018281526020019250505060405180910390a1600092505b84831015610c5457610bb7846009600060076000600554815260200190815260200160002087815481101515610b4257fe5b906000526020600020900160009054906101000a900473ffffffffffffffffffffffffffffffffffffffff1673ffffffffffffffffffffffffffffffffffffffff1673ffffffffffffffffffffffffffffffffffffffff16815260200190815260200160002054610e8990919063ffffffff16565b6009600060076000600554815260200190815260200160002086815481101515610bdd57fe5b906000526020600020900160009054906101000a900473ffffffffffffffffffffffffffffffffffffffff1673ffffffffffffffffffffffffffffffffffffffff1673ffffffffffffffffffffffffffffffffffffffff168152602001908152602001600020819055508280600101935050610b10565b610d75565b7f064000a83e6d43dc6cacd544144da2de96683b44fa261425358bc354564dbccb6005546000604051808381526020018281526020019250505060405180910390a1610d10600254600960008060009054906101000a900473ffffffffffffffffffffffffffffffffffffffff1673ffffffffffffffffffffffffffffffffffffffff1673ffffffffffffffffffffffffffffffffffffffff16815260200190815260200160002054610e8990919063ffffffff16565b600960008060009054906101000a900473ffffffffffffffffffffffffffffffffffffffff1673ffffffffffffffffffffffffffffffffffffffff1673ffffffffffffffffffffffffffffffffffffffff168152602001908152602001600020819055505b600191505b600a82111515610e7257600090505b6007600083815260200190815260200160002080549050811015610e44576000600860006007600086815260200190815260200160002084815481101515610dcd57fe5b906000526020600020900160009054906101000a900473ffffffffffffffffffffffffffffffffffffffff1673ffffffffffffffffffffffffffffffffffffffff1673ffffffffffffffffffffffffffffffffffffffff168152602001908152602001600020819055508080600101915050610d89565b60006007600084815260200190815260200160002081610e649190610f32565b508180600101925050610d7a565b600060028190555060006003819055505050505050565b6000808284019050838110151515610e9d57fe5b8091505092915050565b600080600080600454600354101515610ed657600793506000925062030d409150610ed3838584610ef7565b90505b50505050565b6000808284811515610eea57fe5b0490508091505092915050565b60008060010290509392505050565b815481835581811511610f2d57818360005260206000209182019101610f2c9190610f5e565b5b505050565b815481835581811511610f5957818360005260206000209182019101610f589190610f5e565b5b505050565b610f8091905b80821115610f7c576000816000905550600101610f64565b5090565b90565b505600a165627a7a7230582057cdf31b4bfecc1109083c43a45c1d429d3999cc5213619674942de065a6e9f30029",
  "source": "pragma solidity ^0.4.11;\n\nimport \"./oraclizeAPI.sol\";\n\nlibrary SafeMath {\n    function mul(uint256 a, uint256 b) internal pure returns (uint256) {\n        if (a == 0) {\n            return 0;\n        }\n        uint256 c = a * b;\n        assert(c / a == b);\n        return c;\n    }\n\n    function div(uint256 a, uint256 b) internal pure returns (uint256) {\n        // assert(b > 0); // Solidity automatically throws when dividing by 0\n        uint256 c = a / b;\n        // assert(a == b * c + a % b); // There is no case in which this doesn't hold\n        return c;\n    }\n\n    function sub(uint256 a, uint256 b) internal pure returns (uint256) {\n        assert(b <= a);\n        return a - b;\n    }\n\n    function add(uint256 a, uint256 b) internal pure returns (uint256) {\n        uint256 c = a + b;\n        assert(c >= a);\n        return c;\n    }\n}\n\n/// @title Contract to bet Ether for a number and win randomly when the number of bets is met.\n/// @author Merunas Grincalaitis\ncontract Casino is usingOraclize {\n   using SafeMath for uint256;\n\n   address public owner;\n\n   // The minimum bet a user has to make to participate in the game\n   uint public minimumBet = 100 finney; // Equal to 0.1 ether\n\n   // The total amount of Ether bet for this current game\n   uint public totalBet;\n\n   // The total number of bets the users have made\n   uint public numberOfBets;\n\n   // The maximum amount of bets can be made for each game\n   uint public maxAmountOfBets = 10;\n\n   // The max amount of bets that cannot be exceeded to avoid excessive gas consumption\n   // when distributing the prizes and restarting the game\n   uint public constant LIMIT_AMOUNT_BETS = 100;\n\n   // The number that won the last game\n   uint public numberWinner;\n\n   // Array of players\n   address[] public players;\n\n   // Each number has an array of players. Associate each number with a bunch of players\n   mapping(uint => address[]) public numberBetPlayers;\n\n   // The number that each player has bet for\n   mapping(address => uint) public playerBetsNumber;\n\n   // Winnings map for withdrawal pattern\n   mapping(address => uint256) public winnings;\n\n   // Events\n   event LogBet(address sender, uint256 amount, uint number);\n   event LogWinner(uint winnerNumber, uint256 totalPot);\n   event LogWithdrawal(address receiver, uint256 amount);\n\n   // Modifier to only allow the execution of functions when the bets are completed\n   modifier onEndGame(){\n      if(numberOfBets >= maxAmountOfBets) _;\n   }\n\n   /// @notice Constructor that's used to configure the minimum bet per game and the max amount of bets\n   /// @param _minimumBet The minimum bet that each user has to make in order to participate in the game\n   /// @param _maxAmountOfBets The max amount of bets that are required for each game\n   function Casino(uint _minimumBet, uint _maxAmountOfBets) public {\n      owner = msg.sender;\n\n      if(_minimumBet > 0) minimumBet = _minimumBet;\n      if(_maxAmountOfBets > 0 && _maxAmountOfBets <= LIMIT_AMOUNT_BETS)\n         maxAmountOfBets = _maxAmountOfBets;\n\n      // Set the proof of oraclize in order to make secure random number generations\n      oraclize_setProof(proofType_Ledger);\n   }\n\n   /// @notice Check if a player exists in the current game\n   /// @param player The address of the player to check\n   /// @return bool Returns true is it exists or false if it doesn't\n   function checkPlayerExists(address player) public view returns(bool){\n      if(playerBetsNumber[player] > 0)\n         return true;\n      else\n         return false;\n   }\n\n   /// @notice To bet for a number by sending Ether\n   /// @param numberToBet The number that the player wants to bet for. Must be between 1 and 10 both inclusive\n   function bet(uint numberToBet) public payable{\n\n      // Check that the max amount of bets hasn't been met yet\n      assert(numberOfBets < maxAmountOfBets);\n\n      // Check that the player doesn't exists\n      assert(checkPlayerExists(msg.sender) == false);\n\n      // Check that the number to bet is within the range\n      assert(numberToBet >= 1 && numberToBet <= 10);\n\n      // Check that the amount paid is bigger or equal the minimum bet\n      assert(msg.value >= minimumBet);\n\n      // Set the number bet for that player\n      playerBetsNumber[msg.sender] = numberToBet;\n\n      // The player msg.sender has bet for that number\n      numberBetPlayers[numberToBet].push(msg.sender);\n\n      numberOfBets = numberOfBets.add(1);\n      totalBet = totalBet.add(msg.value);\n\n      LogBet(msg.sender, msg.value, numberToBet);\n\n      if(numberOfBets >= maxAmountOfBets) generateNumberWinner();\n   }\n\n   /// @notice Generates a random number between 1 and 10 both inclusive.\n   /// Must be payable because oraclize needs gas to generate a random number.\n   /// Can only be executed when the game ends.\n   function generateNumberWinner() internal onEndGame {\n      uint numberRandomBytes = 7;\n      uint delay = 0;\n      uint callbackGas = 200000;\n\n      bytes32 queryId = oraclize_newRandomDSQuery(delay, numberRandomBytes, callbackGas);\n   }\n\n   /// @notice Callback function that gets called by oraclize when the random number is generated\n   /// @param _queryId The query id that was generated to proofVerify\n   /// @param _result String that contains the number generated\n   /// @param _proof A string with a proof code to verify the authenticity of the number generation\n   function __callback(\n      bytes32 _queryId,\n      string _result,\n      bytes _proof\n   ) public oraclize_randomDS_proofVerify(_queryId, _result, _proof) onEndGame {\n\n      // Checks that the sender of this callback was in fact oraclize\n      assert(msg.sender == oraclize_cbAddress());\n\n      numberWinner = (uint(keccak256(_result))%10+1);\n      distributePrizes();\n   }\n\n   /// @notice Sends the corresponding Ether to each winner then deletes all the\n   /// players for the next game and resets the `totalBet` and `numberOfBets`\n   function distributePrizes() internal {\n      uint winnerCount = numberBetPlayers[numberWinner].length;\n\n      if (winnerCount > 0) {\n        uint winnerEtherAmount = totalBet.div(winnerCount);\n        LogWinner(numberWinner, totalBet);\n\n        // Loop through all the winners to send the corresponding prize for each one\n        for(uint i = 0; i < winnerCount; i++){\n           winnings[numberBetPlayers[numberWinner][i]] = winnings[numberBetPlayers[numberWinner][i]].add(winnerEtherAmount);\n        }\n      } else {\n         LogWinner(numberWinner, 0);\n         // If no winners, owner takes the pot to avoid funds getting stuck\n         winnings[owner] = winnings[owner].add(totalBet);\n      }\n\n      // Delete all the players for each number and reset bet tracking\n      for(uint j = 1; j <= 10; j++){\n         for(uint m = 0; m < numberBetPlayers[j].length; m++){\n             playerBetsNumber[numberBetPlayers[j][m]] = 0;\n         }\n         numberBetPlayers[j].length = 0;\n      }\n\n      totalBet = 0;\n      numberOfBets = 0;\n   }\n\n   function withdraw(uint256 amount) public {\n       require(winnings[msg.sender] >= amount);\n       winnings[msg.sender] = winnings[msg.sender].sub(amount);\n       msg.sender.transfer(amount);\n       LogWithdrawal(msg.sender, amount);\n   }\n}\n",
  "sourcePath": "/app/contracts/Casino.sol",
  "compiler": {
    "name": "solc",
    "version": "0.4.19+commit.c4cbbb05.Emscripten.clang"
  },
  "schemaVersion": "1.0.1",
  "updatedAt": "2026-01-26T20:38:59.857Z"
}