{
  "contractName": "Casino",
  "abi": [
    {
      "constant": false,
      "inputs": [
        {
          "name": "_datasource",
          "type": "string"
        }
      ],
      "name": "oraclize_getPrice",
      "outputs": [
        {
          "name": "",
          "type": "uint256"
        }
      ],
      "payable": false,
      "stateMutability": "nonpayable",
      "type": "function"
    },
    {
      "constant": true,
      "inputs": [],
      "name": "LIMIT_AMOUNT_BETS",
      "outputs": [
        {
          "name": "",
          "type": "uint256"
        }
      ],
      "payable": false,
      "stateMutability": "view",
      "type": "function"
    },
    {
      "constant": true,
      "inputs": [],
      "name": "numberOfBets",
      "outputs": [
        {
          "name": "",
          "type": "uint256"
        }
      ],
      "payable": false,
      "stateMutability": "view",
      "type": "function"
    },
    {
      "constant": false,
      "inputs": [
        {
          "name": "amount",
          "type": "uint256"
        }
      ],
      "name": "withdraw",
      "outputs": [],
      "payable": false,
      "stateMutability": "nonpayable",
      "type": "function"
    },
    {
      "constant": true,
      "inputs": [
        {
          "name": "",
          "type": "address"
        }
      ],
      "name": "playerBetsNumber",
      "outputs": [
        {
          "name": "",
          "type": "uint256"
        }
      ],
      "payable": false,
      "stateMutability": "view",
      "type": "function"
    },
    {
      "constant": false,
      "inputs": [
        {
          "name": "_queryId",
          "type": "bytes32"
        },
        {
          "name": "_result",
          "type": "string"
        },
        {
          "name": "_proof",
          "type": "bytes"
        }
      ],
      "name": "__callback",
      "outputs": [],
      "payable": false,
      "stateMutability": "nonpayable",
      "type": "function"
    },
    {
      "constant": true,
      "inputs": [
        {
          "name": "player",
          "type": "address"
        }
      ],
      "name": "checkPlayerExists",
      "outputs": [
        {
          "name": "",
          "type": "bool"
        }
      ],
      "payable": false,
      "stateMutability": "view",
      "type": "function"
    },
    {
      "constant": false,
      "inputs": [],
      "name": "kill",
      "outputs": [],
      "payable": false,
      "stateMutability": "nonpayable",
      "type": "function"
    },
    {
      "constant": false,
      "inputs": [
        {
          "name": "_newMaxAmountOfBets",
          "type": "uint256"
        }
      ],
      "name": "setMaxAmountOfBets",
      "outputs": [],
      "payable": false,
      "stateMutability": "nonpayable",
      "type": "function"
    },
    {
      "constant": false,
      "inputs": [
        {
          "name": "numberToBet",
          "type": "uint256"
        }
      ],
      "name": "bet",
      "outputs": [],
      "payable": true,
      "stateMutability": "payable",
      "type": "function"
    },
    {
      "constant": false,
      "inputs": [
        {
          "name": "_newMinimumBet",
          "type": "uint256"
        }
      ],
      "name": "setMinimumBet",
      "outputs": [],
      "payable": false,
      "stateMutability": "nonpayable",
      "type": "function"
    },
    {
      "constant": true,
      "inputs": [],
      "name": "owner",
      "outputs": [
        {
          "name": "",
          "type": "address"
        }
      ],
      "payable": false,
      "stateMutability": "view",
      "type": "function"
    },
    {
      "constant": true,
      "inputs": [],
      "name": "numberWinner",
      "outputs": [
        {
          "name": "",
          "type": "uint256"
        }
      ],
      "payable": false,
      "stateMutability": "view",
      "type": "function"
    },
    {
      "constant": false,
      "inputs": [
        {
          "name": "_datasource",
          "type": "string"
        },
        {
          "name": "_gasLimit",
          "type": "uint256"
        }
      ],
      "name": "oraclize_getPrice",
      "outputs": [
        {
          "name": "",
          "type": "uint256"
        }
      ],
      "payable": false,
      "stateMutability": "nonpayable",
      "type": "function"
    },
    {
      "constant": false,
      "inputs": [],
      "name": "oraclize_cbAddress",
      "outputs": [
        {
          "name": "",
          "type": "address"
        }
      ],
      "payable": false,
      "stateMutability": "nonpayable",
      "type": "function"
    },
    {
      "constant": true,
      "inputs": [],
      "name": "minimumBet",
      "outputs": [
        {
          "name": "",
          "type": "uint256"
        }
      ],
      "payable": false,
      "stateMutability": "view",
      "type": "function"
    },
    {
      "constant": true,
      "inputs": [
        {
          "name": "",
          "type": "uint256"
        },
        {
          "name": "",
          "type": "uint256"
        }
      ],
      "name": "numberBetPlayers",
      "outputs": [
        {
          "name": "",
          "type": "address"
        }
      ],
      "payable": false,
      "stateMutability": "view",
      "type": "function"
    },
    {
      "constant": false,
      "inputs": [
        {
          "name": "_delay",
          "type": "uint256"
        },
        {
          "name": "_nbytes",
          "type": "uint256"
        },
        {
          "name": "_customGasLimit",
          "type": "uint256"
        }
      ],
      "name": "oraclize_newRandomDSQuery",
      "outputs": [
        {
          "name": "",
          "type": "bytes32"
        }
      ],
      "payable": false,
      "stateMutability": "nonpayable",
      "type": "function"
    },
    {
      "constant": false,
      "inputs": [
        {
          "name": "_proofP",
          "type": "bytes1"
        }
      ],
      "name": "oraclize_setProof",
      "outputs": [],
      "payable": false,
      "stateMutability": "nonpayable",
      "type": "function"
    },
    {
      "constant": true,
      "inputs": [],
      "name": "maxAmountOfBets",
      "outputs": [
        {
          "name": "",
          "type": "uint256"
        }
      ],
      "payable": false,
      "stateMutability": "view",
      "type": "function"
    },
    {
      "constant": true,
      "inputs": [
        {
          "name": "",
          "type": "address"
        }
      ],
      "name": "winnings",
      "outputs": [
        {
          "name": "",
          "type": "uint256"
        }
      ],
      "payable": false,
      "stateMutability": "view",
      "type": "function"
    },
    {
      "constant": true,
      "inputs": [
        {
          "name": "",
          "type": "uint256"
        }
      ],
      "name": "players",
      "outputs": [
        {
          "name": "",
          "type": "address"
        }
      ],
      "payable": false,
      "stateMutability": "view",
      "type": "function"
    },
    {
      "constant": true,
      "inputs": [],
      "name": "totalBet",
      "outputs": [
        {
          "name": "",
          "type": "uint256"
        }
      ],
      "payable": false,
      "stateMutability": "view",
      "type": "function"
    },
    {
      "inputs": [
        {
          "name": "_minimumBet",
          "type": "uint256"
        },
        {
          "name": "_maxAmountOfBets",
          "type": "uint256"
        }
      ],
      "payable": false,
      "stateMutability": "nonpayable",
      "type": "constructor"
    },
    {
      "anonymous": false,
      "inputs": [
        {
          "indexed": false,
          "name": "sender",
          "type": "address"
        },
        {
          "indexed": false,
          "name": "amount",
          "type": "uint256"
        },
        {
          "indexed": false,
          "name": "number",
          "type": "uint256"
        }
      ],
      "name": "LogBet",
      "type": "event"
    },
    {
      "anonymous": false,
      "inputs": [
        {
          "indexed": false,
          "name": "winnerNumber",
          "type": "uint256"
        },
        {
          "indexed": false,
          "name": "totalPot",
          "type": "uint256"
        }
      ],
      "name": "LogWinner",
      "type": "event"
    },
    {
      "anonymous": false,
      "inputs": [
        {
          "indexed": false,
          "name": "receiver",
          "type": "address"
        },
        {
          "indexed": false,
          "name": "amount",
          "type": "uint256"
        }
      ],
      "name": "LogWithdrawal",
      "type": "event"
    }
  ],
  "bytecode": "0x606060405267016345785d8a0000600155600a600455341561002057600080fd5b60405160408061154883398101604052808051906020019091908051906020019091905050336000806101000a81548173ffffffffffffffffffffffffffffffffffffffff021916908373ffffffffffffffffffffffffffffffffffffffff160217905550600082111561009657816001819055505b6000811180156100a7575060648111155b156100b457806004819055505b6100f360307f0100000000000000000000000000000000000000000000000000000000000000026100fa64010000000002610e43176401000000009004565b50506100fd565b50565b61143c8061010c6000396000f300606060405260043610610133576000357c0100000000000000000000000000000000000000000000000000000000900463ffffffff168063053c351b146101385780631900874b146101a95780632ca8c6d3146101d25780632e1a7d4d146101fb57806332eacbde1461021e57806338bbfa501461026b5780634081d9161461031857806341c0e1b514610369578063658f20c61461037e5780637365870b146103a15780638772ae3c146103b95780638da5cb5b146103dc5780639a6a68e914610431578063abe9f5691461045a578063bcf175c8146104d4578063c38a8afd14610529578063cc5371bf14610552578063d71df760146105be578063d7c26adb1461060f578063e08a96cd14610654578063ea3a14991461067d578063f71d96cb146106ca578063fe5e18531461072d575b600080fd5b341561014357600080fd5b610193600480803590602001908201803590602001908080601f01602080910402602001604051908101604052809392919081815260200183838082843782019150505050505091905050610756565b6040518082815260200191505060405180910390f35b34156101b457600080fd5b6101bc610760565b6040518082815260200191505060405180910390f35b34156101dd57600080fd5b6101e5610765565b6040518082815260200191505060405180910390f35b341561020657600080fd5b61021c600480803590602001909190505061076b565b005b341561022957600080fd5b610255600480803573ffffffffffffffffffffffffffffffffffffffff169060200190919050506108fc565b6040518082815260200191505060405180910390f35b341561027657600080fd5b61031660048080356000191690602001909190803590602001908201803590602001908080601f0160208091040260200160405190810160405280939291908181526020018383808284378201915050505050509190803590602001908201803590602001908080601f01602080910402602001604051908101604052809392919081815260200183838082843782019150505050505091905050610914565b005b341561032357600080fd5b61034f600480803573ffffffffffffffffffffffffffffffffffffffff169060200190919050506109ef565b604051808215151515815260200191505060405180910390f35b341561037457600080fd5b61037c610a4b565b005b341561038957600080fd5b61039f6004808035906020019091905050610ae0565b005b6103b76004808035906020019091905050610b61565b005b34156103c457600080fd5b6103da6004808035906020019091905050610d2b565b005b34156103e757600080fd5b6103ef610d90565b604051808273ffffffffffffffffffffffffffffffffffffffff1673ffffffffffffffffffffffffffffffffffffffff16815260200191505060405180910390f35b341561043c57600080fd5b610444610db5565b6040518082815260200191505060405180910390f35b341561046557600080fd5b6104be600480803590602001908201803590602001908080601f01602080910402602001604051908101604052809392919081815260200183838082843782019150505050505091908035906020019091905050610dbb565b6040518082815260200191505060405180910390f35b34156104df57600080fd5b6104e7610dc6565b604051808273ffffffffffffffffffffffffffffffffffffffff1673ffffffffffffffffffffffffffffffffffffffff16815260200191505060405180910390f35b341561053457600080fd5b61053c610dce565b6040518082815260200191505060405180910390f35b341561055d57600080fd5b61057c6004808035906020019091908035906020019091905050610dd4565b604051808273ffffffffffffffffffffffffffffffffffffffff1673ffffffffffffffffffffffffffffffffffffffff16815260200191505060405180910390f35b34156105c957600080fd5b6105f16004808035906020019091908035906020019091908035906020019091905050610e22565b60405180826000191660001916815260200191505060405180910390f35b341561061a57600080fd5b61065260048080357effffffffffffffffffffffffffffffffffffffffffffffffffffffffffffff1916906020019091905050610e43565b005b341561065f57600080fd5b610667610e46565b6040518082815260200191505060405180910390f35b341561068857600080fd5b6106b4600480803573ffffffffffffffffffffffffffffffffffffffff16906020019091905050610e4c565b6040518082815260200191505060405180910390f35b34156106d557600080fd5b6106eb6004808035906020019091905050610e64565b604051808273ffffffffffffffffffffffffffffffffffffffff1673ffffffffffffffffffffffffffffffffffffffff16815260200191505060405180910390f35b341561073857600080fd5b610740610ea3565b6040518082815260200191505060405180910390f35b6000809050919050565b606481565b60035481565b80600960003373ffffffffffffffffffffffffffffffffffffffff1673ffffffffffffffffffffffffffffffffffffffff16815260200190815260200160002054101515156107b957600080fd5b61080b81600960003373ffffffffffffffffffffffffffffffffffffffff1673ffffffffffffffffffffffffffffffffffffffff16815260200190815260200160002054610ea990919063ffffffff16565b600960003373ffffffffffffffffffffffffffffffffffffffff1673ffffffffffffffffffffffffffffffffffffffff168152602001908152602001600020819055503373ffffffffffffffffffffffffffffffffffffffff166108fc829081150290604051600060405180830381858888f19350505050151561088e57600080fd5b7fb4214c8c54fc7442f36d3682f59aebaf09358a4431835b30efb29d52cf9e1e913382604051808373ffffffffffffffffffffffffffffffffffffffff1673ffffffffffffffffffffffffffffffffffffffff1681526020018281526020019250505060405180910390a150565b60086020528060005260406000206000915090505481565b8282826004546003541015156109e75761092c610dc6565b73ffffffffffffffffffffffffffffffffffffffff163373ffffffffffffffffffffffffffffffffffffffff1614151561096257fe5b6001600a866040518082805190602001908083835b60208310151561099c5780518252602082019150602081019050602083039250610977565b6001836020036101000a0380198251168184511680821785525050505050509050019150506040518091039020600190048115156109d657fe5b06016005819055506109e6610ec2565b5b505050505050565b600080600860008473ffffffffffffffffffffffffffffffffffffffff1673ffffffffffffffffffffffffffffffffffffffff168152602001908152602001600020541115610a415760019050610a46565b600090505b919050565b6000809054906101000a900473ffffffffffffffffffffffffffffffffffffffff1673ffffffffffffffffffffffffffffffffffffffff163373ffffffffffffffffffffffffffffffffffffffff16141515610aa657600080fd5b6000809054906101000a900473ffffffffffffffffffffffffffffffffffffffff1673ffffffffffffffffffffffffffffffffffffffff16ff5b6000809054906101000a900473ffffffffffffffffffffffffffffffffffffffff1673ffffffffffffffffffffffffffffffffffffffff163373ffffffffffffffffffffffffffffffffffffffff16141515610b3b57600080fd5b600081118015610b4c575060648111155b1515610b5757600080fd5b8060048190555050565b600454600354101515610b7057fe5b60001515610b7d336109ef565b1515141515610b8857fe5b60018110158015610b9a5750600a8111155b1515610ba257fe5b6001543410151515610bb057fe5b80600860003373ffffffffffffffffffffffffffffffffffffffff1673ffffffffffffffffffffffffffffffffffffffff16815260200190815260200160002081905550600760008281526020019081526020016000208054806001018281610c199190611393565b9160005260206000209001600033909190916101000a81548173ffffffffffffffffffffffffffffffffffffffff021916908373ffffffffffffffffffffffffffffffffffffffff16021790555050610c7e60016003546112c690919063ffffffff16565b600381905550610c99346002546112c690919063ffffffff16565b6002819055507fcfb6e9afebabebfb2c7ac42dfcd2e8ca178dc6400fe8ec3075bd690d8e3377fe333483604051808473ffffffffffffffffffffffffffffffffffffffff1673ffffffffffffffffffffffffffffffffffffffff168152602001838152602001828152602001935050505060405180910390a1600454600354101515610d2857610d276112e4565b5b50565b6000809054906101000a900473ffffffffffffffffffffffffffffffffffffffff1673ffffffffffffffffffffffffffffffffffffffff163373ffffffffffffffffffffffffffffffffffffffff16141515610d8657600080fd5b8060018190555050565b6000809054906101000a900473ffffffffffffffffffffffffffffffffffffffff1681565b60055481565b600080905092915050565b600033905090565b60015481565b600760205281600052604060002081815481101515610def57fe5b90600052602060002090016000915091509054906101000a900473ffffffffffffffffffffffffffffffffffffffff1681565b60004360405180828152602001915050604051809103902090509392505050565b50565b60045481565b60096020528060005260406000206000915090505481565b600681815481101515610e7357fe5b90600052602060002090016000915054906101000a900473ffffffffffffffffffffffffffffffffffffffff1681565b60025481565b6000828211151515610eb757fe5b818303905092915050565b6000806000806000600760006005548152602001908152602001600020805490509450600085111561109657610f038560025461137890919063ffffffff16565b93507f064000a83e6d43dc6cacd544144da2de96683b44fa261425358bc354564dbccb600554600254604051808381526020018281526020019250505060405180910390a1600092505b8483101561109157610ff4846009600060076000600554815260200190815260200160002087815481101515610f7f57fe5b906000526020600020900160009054906101000a900473ffffffffffffffffffffffffffffffffffffffff1673ffffffffffffffffffffffffffffffffffffffff1673ffffffffffffffffffffffffffffffffffffffff168152602001908152602001600020546112c690919063ffffffff16565b600960006007600060055481526020019081526020016000208681548110151561101a57fe5b906000526020600020900160009054906101000a900473ffffffffffffffffffffffffffffffffffffffff1673ffffffffffffffffffffffffffffffffffffffff1673ffffffffffffffffffffffffffffffffffffffff168152602001908152602001600020819055508280600101935050610f4d565b6111b2565b7f064000a83e6d43dc6cacd544144da2de96683b44fa261425358bc354564dbccb6005546000604051808381526020018281526020019250505060405180910390a161114d600254600960008060009054906101000a900473ffffffffffffffffffffffffffffffffffffffff1673ffffffffffffffffffffffffffffffffffffffff1673ffffffffffffffffffffffffffffffffffffffff168152602001908152602001600020546112c690919063ffffffff16565b600960008060009054906101000a900473ffffffffffffffffffffffffffffffffffffffff1673ffffffffffffffffffffffffffffffffffffffff1673ffffffffffffffffffffffffffffffffffffffff168152602001908152602001600020819055505b600191505b600a821115156112af57600090505b600760008381526020019081526020016000208054905081101561128157600060086000600760008681526020019081526020016000208481548110151561120a57fe5b906000526020600020900160009054906101000a900473ffffffffffffffffffffffffffffffffffffffff1673ffffffffffffffffffffffffffffffffffffffff1673ffffffffffffffffffffffffffffffffffffffff1681526020019081526020016000208190555080806001019150506111c6565b600060076000848152602001908152602001600020816112a191906113bf565b5081806001019250506111b7565b600060028190555060006003819055505050505050565b60008082840190508381101515156112da57fe5b8091505092915050565b600080600080600060045460035410151561137157600794506000935062030d4092506113466040805190810160405280600681526020017f72616e646f6d000000000000000000000000000000000000000000000000000081525084610dbb565b915061135d82600254610ea990919063ffffffff16565b60028190555061136e848685610e22565b90505b5050505050565b600080828481151561138657fe5b0490508091505092915050565b8154818355818115116113ba578183600052602060002091820191016113b991906113eb565b5b505050565b8154818355818115116113e6578183600052602060002091820191016113e591906113eb565b5b505050565b61140d91905b808211156114095760008160009055506001016113f1565b5090565b905600a165627a7a7230582048dcb26f3192624ed727fa2a2226392dd2bd42d33274b4406ca7b6d7db16f56c0029",
  "source": "pragma solidity ^0.4.11;\n\n// WARNING: Using local mock for development. Replace with GitHub import for production.\nimport \"./oraclizeAPI_0.4.sol\";\n\nlibrary SafeMath {\n    function mul(uint256 a, uint256 b) internal pure returns (uint256) {\n        if (a == 0) {\n            return 0;\n        }\n        uint256 c = a * b;\n        assert(c / a == b);\n        return c;\n    }\n\n    function div(uint256 a, uint256 b) internal pure returns (uint256) {\n        // assert(b > 0); // Solidity automatically throws when dividing by 0\n        uint256 c = a / b;\n        // assert(a == b * c + a % b); // There is no case in which this doesn't hold\n        return c;\n    }\n\n    function sub(uint256 a, uint256 b) internal pure returns (uint256) {\n        assert(b <= a);\n        return a - b;\n    }\n\n    function add(uint256 a, uint256 b) internal pure returns (uint256) {\n        uint256 c = a + b;\n        assert(c >= a);\n        return c;\n    }\n}\n\n/// @title Contract to bet Ether for a number and win randomly when the number of bets is met.\n/// @author Merunas Grincalaitis\ncontract Casino is usingOraclize {\n   using SafeMath for uint256;\n\n   address public owner;\n\n   // The minimum bet a user has to make to participate in the game\n   uint public minimumBet = 100 finney; // Equal to 0.1 ether\n\n   // The total amount of Ether bet for this current game\n   uint public totalBet;\n\n   // The total number of bets the users have made\n   uint public numberOfBets;\n\n   // The maximum amount of bets can be made for each game\n   uint public maxAmountOfBets = 10;\n\n   // The max amount of bets that cannot be exceeded to avoid excessive gas consumption\n   // when distributing the prizes and restarting the game\n   uint public constant LIMIT_AMOUNT_BETS = 100;\n\n   // The number that won the last game\n   uint public numberWinner;\n\n   // Array of players\n   address[] public players;\n\n   // Each number has an array of players. Associate each number with a bunch of players\n   mapping(uint => address[]) public numberBetPlayers;\n\n   // The number that each player has bet for\n   mapping(address => uint) public playerBetsNumber;\n\n   // Winnings map for withdrawal pattern\n   mapping(address => uint256) public winnings;\n\n   // Events\n   event LogBet(address sender, uint256 amount, uint number);\n   event LogWinner(uint winnerNumber, uint256 totalPot);\n   event LogWithdrawal(address receiver, uint256 amount);\n\n   // Modifier to only allow the execution of functions when the bets are completed\n   modifier onEndGame(){\n      if(numberOfBets >= maxAmountOfBets) _;\n   }\n\n   /// @notice Constructor that's used to configure the minimum bet per game and the max amount of bets\n   /// @param _minimumBet The minimum bet that each user has to make in order to participate in the game\n   /// @param _maxAmountOfBets The max amount of bets that are required for each game\n   function Casino(uint _minimumBet, uint _maxAmountOfBets) public {\n      owner = msg.sender;\n\n      if(_minimumBet > 0) minimumBet = _minimumBet;\n      if(_maxAmountOfBets > 0 && _maxAmountOfBets <= LIMIT_AMOUNT_BETS)\n         maxAmountOfBets = _maxAmountOfBets;\n\n      // Set the proof of oraclize in order to make secure random number generations\n      oraclize_setProof(proofType_Ledger);\n   }\n\n   /// @notice Check if a player exists in the current game\n   /// @param player The address of the player to check\n   /// @return bool Returns true is it exists or false if it doesn't\n   function checkPlayerExists(address player) public view returns(bool){\n      if(playerBetsNumber[player] > 0)\n         return true;\n      else\n         return false;\n   }\n\n   /// @notice To bet for a number by sending Ether\n   /// @param numberToBet The number that the player wants to bet for. Must be between 1 and 10 both inclusive\n   function bet(uint numberToBet) public payable{\n\n      // Check that the max amount of bets hasn't been met yet\n      assert(numberOfBets < maxAmountOfBets);\n\n      // Check that the player doesn't exists\n      assert(checkPlayerExists(msg.sender) == false);\n\n      // Check that the number to bet is within the range\n      assert(numberToBet >= 1 && numberToBet <= 10);\n\n      // Check that the amount paid is bigger or equal the minimum bet\n      assert(msg.value >= minimumBet);\n\n      // Set the number bet for that player\n      playerBetsNumber[msg.sender] = numberToBet;\n\n      // The player msg.sender has bet for that number\n      numberBetPlayers[numberToBet].push(msg.sender);\n\n      numberOfBets = numberOfBets.add(1);\n      totalBet = totalBet.add(msg.value);\n\n      LogBet(msg.sender, msg.value, numberToBet);\n\n      if(numberOfBets >= maxAmountOfBets) generateNumberWinner();\n   }\n\n   /// @notice Generates a random number between 1 and 10 both inclusive.\n   /// Must be payable because oraclize needs gas to generate a random number.\n   /// Can only be executed when the game ends.\n   function generateNumberWinner() internal onEndGame {\n      uint numberRandomBytes = 7;\n      uint delay = 0;\n      uint callbackGas = 200000;\n\n      uint256 queryPrice = oraclize_getPrice(\"random\", callbackGas);\n      totalBet = totalBet.sub(queryPrice);\n\n      bytes32 queryId = oraclize_newRandomDSQuery(delay, numberRandomBytes, callbackGas);\n   }\n\n   /// @notice Callback function that gets called by oraclize when the random number is generated\n   /// @param _queryId The query id that was generated to proofVerify\n   /// @param _result String that contains the number generated\n   /// @param _proof A string with a proof code to verify the authenticity of the number generation\n   function __callback(\n      bytes32 _queryId,\n      string _result,\n      bytes _proof\n   ) public oraclize_randomDS_proofVerify(_queryId, _result, _proof) onEndGame {\n\n      // Checks that the sender of this callback was in fact oraclize\n      assert(msg.sender == oraclize_cbAddress());\n\n      numberWinner = (uint(keccak256(_result))%10+1);\n      distributePrizes();\n   }\n\n   /// @notice Sends the corresponding Ether to each winner then deletes all the\n   /// players for the next game and resets the `totalBet` and `numberOfBets`\n   function distributePrizes() internal {\n      uint winnerCount = numberBetPlayers[numberWinner].length;\n\n      if (winnerCount > 0) {\n        uint winnerEtherAmount = totalBet.div(winnerCount);\n        LogWinner(numberWinner, totalBet);\n\n        // Loop through all the winners to send the corresponding prize for each one\n        for(uint i = 0; i < winnerCount; i++){\n           winnings[numberBetPlayers[numberWinner][i]] = winnings[numberBetPlayers[numberWinner][i]].add(winnerEtherAmount);\n        }\n      } else {\n         LogWinner(numberWinner, 0);\n         // If no winners, owner takes the pot to avoid funds getting stuck\n         winnings[owner] = winnings[owner].add(totalBet);\n      }\n\n      // Delete all the players for each number and reset bet tracking\n      for(uint j = 1; j <= 10; j++){\n         for(uint m = 0; m < numberBetPlayers[j].length; m++){\n             playerBetsNumber[numberBetPlayers[j][m]] = 0;\n         }\n         numberBetPlayers[j].length = 0;\n      }\n\n      totalBet = 0;\n      numberOfBets = 0;\n   }\n\n   function withdraw(uint256 amount) public {\n       require(winnings[msg.sender] >= amount);\n       winnings[msg.sender] = winnings[msg.sender].sub(amount);\n       msg.sender.transfer(amount);\n       LogWithdrawal(msg.sender, amount);\n   }\n\n   function setMinimumBet(uint _newMinimumBet) public {\n       require(msg.sender == owner);\n       minimumBet = _newMinimumBet;\n   }\n\n   function setMaxAmountOfBets(uint _newMaxAmountOfBets) public {\n       require(msg.sender == owner);\n       require(_newMaxAmountOfBets > 0 && _newMaxAmountOfBets <= LIMIT_AMOUNT_BETS);\n       maxAmountOfBets = _newMaxAmountOfBets;\n   }\n\n   function kill() public {\n       require(msg.sender == owner);\n       selfdestruct(owner);\n   }\n}\n",
  "sourcePath": "/app/contracts/Casino.sol",
  "compiler": {
    "name": "solc",
    "version": "0.4.19+commit.c4cbbb05.Emscripten.clang"
  },
  "schemaVersion": "1.0.1",
  "updatedAt": "2026-02-03T00:32:56.905Z"
}