{
  "contractName": "usingOraclize",
  "abi": [
    {
      "constant": false,
      "inputs": [
        {
          "name": "_proofP",
          "type": "bytes1"
        }
      ],
      "name": "oraclize_setProof",
      "outputs": [],
      "payable": false,
      "stateMutability": "nonpayable",
      "type": "function"
    },
    {
      "constant": false,
      "inputs": [
        {
          "name": "_datasource",
          "type": "string"
        }
      ],
      "name": "oraclize_getPrice",
      "outputs": [
        {
          "name": "",
          "type": "uint256"
        }
      ],
      "payable": false,
      "stateMutability": "nonpayable",
      "type": "function"
    },
    {
      "constant": false,
      "inputs": [
        {
          "name": "_datasource",
          "type": "string"
        },
        {
          "name": "_gasLimit",
          "type": "uint256"
        }
      ],
      "name": "oraclize_getPrice",
      "outputs": [
        {
          "name": "",
          "type": "uint256"
        }
      ],
      "payable": false,
      "stateMutability": "nonpayable",
      "type": "function"
    },
    {
      "constant": false,
      "inputs": [
        {
          "name": "_delay",
          "type": "uint256"
        },
        {
          "name": "_nbytes",
          "type": "uint256"
        },
        {
          "name": "_customGasLimit",
          "type": "uint256"
        }
      ],
      "name": "oraclize_newRandomDSQuery",
      "outputs": [
        {
          "name": "",
          "type": "bytes32"
        }
      ],
      "payable": false,
      "stateMutability": "nonpayable",
      "type": "function"
    },
    {
      "constant": false,
      "inputs": [],
      "name": "oraclize_cbAddress",
      "outputs": [
        {
          "name": "",
          "type": "address"
        }
      ],
      "payable": false,
      "stateMutability": "nonpayable",
      "type": "function"
    }
  ],
  "bytecode": "0x6060604052341561000f57600080fd5b6102b58061001e6000396000f30060606040526004361061006d576000357c0100000000000000000000000000000000000000000000000000000000900463ffffffff168063053c351b14610072578063abe9f569146100e3578063bcf175c81461015d578063d71df760146101b2578063d7c26adb14610203575b600080fd5b341561007d57600080fd5b6100cd600480803590602001908201803590602001908080601f01602080910402602001604051908101604052809392919081815260200183838082843782019150505050505091905050610248565b6040518082815260200191505060405180910390f35b34156100ee57600080fd5b610147600480803590602001908201803590602001908080601f01602080910402602001604051908101604052809392919081815260200183838082843782019150505050505091908035906020019091905050610252565b6040518082815260200191505060405180910390f35b341561016857600080fd5b61017061025d565b604051808273ffffffffffffffffffffffffffffffffffffffff1673ffffffffffffffffffffffffffffffffffffffff16815260200191505060405180910390f35b34156101bd57600080fd5b6101e56004808035906020019091908035906020019091908035906020019091905050610265565b60405180826000191660001916815260200191505060405180910390f35b341561020e57600080fd5b61024660048080357effffffffffffffffffffffffffffffffffffffffffffffffffffffffffffff1916906020019091905050610286565b005b6000809050919050565b600080905092915050565b600033905090565b60004360405180828152602001915050604051809103902090509392505050565b505600a165627a7a72305820e2824b1f32b14d0dfc32b2beb545dc328f5c62103cf456ff61edc674017e46140029",
  "source": "pragma solidity ^0.4.11;\n\n// ----------------------------------------------------------------------------\n// WARNING: THIS IS A MOCK CONTRACT FOR DEVELOPMENT AND TESTING PURPOSES ONLY.\n// IT IS NOT SECURE. IT ALLOWS ANY CALLER TO SIMULATE THE ORACLE CALLBACK.\n// DO NOT USE THIS IN PRODUCTION.\n// ----------------------------------------------------------------------------\n\ncontract usingOraclize {\n    byte constant proofType_Ledger = 0x30;\n    byte constant proofType_Native = 0xF0;\n    byte constant proofType_Slice = 0xF1;\n    byte constant proofType_Android = 0xF2;\n    byte constant proofType_None = 0x00;\n\n    function oraclize_setProof(byte _proofP) public {\n    }\n\n    function oraclize_getPrice(string _datasource) public returns (uint) {\n        return 0;\n    }\n\n    function oraclize_getPrice(string _datasource, uint _gasLimit) public returns (uint) {\n        return 0;\n    }\n\n    function oraclize_newRandomDSQuery(uint _delay, uint _nbytes, uint _customGasLimit) public returns (bytes32) {\n        // For testing, just return a predictable hash or random-ish\n        return keccak256(block.number);\n    }\n\n    function oraclize_cbAddress() public returns (address) {\n        // SECURITY RISK: Returns msg.sender so anyone can call __callback\n        return msg.sender;\n    }\n\n    modifier oraclize_randomDS_proofVerify(bytes32 _queryId, string _result, bytes _proof) {\n        _;\n    }\n}\n",
  "sourcePath": "/app/contracts/oraclizeAPI_0.4.sol",
  "compiler": {
    "name": "solc",
    "version": "0.4.19+commit.c4cbbb05.Emscripten.clang"
  },
  "schemaVersion": "1.0.1",
  "updatedAt": "2026-02-03T00:32:56.914Z"
}